:100000000C9435010C9466010C9466010C94660105
:100010000C9466010C9466010C9466010C946601C4
:100020000C9466010C9466010C9466010C946601B4
:100030000C9466010C9466010C9466010C946601A4
:100040000C9466010C9466010C9466010C94660194
:100050000C9466010C9466010C9466010C943104B6
:100060000C9466010C94FB030C94D1030C94660170
:100070000C9466010C9466010C9466010C94660164
:100080000C9466010C9466010C9466010C94660154
:100090000C9466010C9466010C9466010C94660144
:1000A0000C9466010C9466010C9466010C94660134
:1000B0000C9466010C9466010C9466010C94660124
:1000C0000C9466010C9466010C9466010C94660114
:1000D0000C9466010C9466010C9466010C94660104
:1000E0000C9466010C94E3020C9419030C941D0209
:1000F0000C9402030C940C030C94B4010C946A024B
:100100000C9410030C94D7010C94FE020C94F4028E
:100110000C9406030C94F8020C94EB020C941E034E
:100120000C94EE020C9414030C94A5080C94C301D7
:100130000C94D9020C9487010C941A030C94DF02DE
:100140000C94E5010C94E702000020002300260037
:1001500029002C002F0032000001000003010601DD
:10016000090100000A0B02090C0D0E080703040127
:10017000000000000000000000000000000000007F
:10018000000000000000000000000000000012114C
:10019000100000000000000000000000000000004F
:1001A00000000000000000000000220025002800E0
:1001B0002B002E003100340002010000050108016F
:1001C0000B0100002100240027002A002D00300030
:1001D000330001010000040107010A0105050505BE
:1001E000070508080808020202020A0A08080404AF
:1001F00004040101010101010101030303030303DD
:100200000303040707070C0C0C0C0C0C0C0C02026B
:10021000020206060606060606060B0B0B0B0B0B68
:100220000B0B0102102020080810204010204080F5
:1002300002010201080402010102040810204080AA
:100240008040201008040201800402018040201038
:100250000804020108040201010204081020408081
:100260000102040810204080A50811241FBECFEF12
:10027000D1E2DEBFCDBF00E00CBF12E0A0E0B2E0F3
:10028000E8EBF1E100E00BBF02C007900D92A23154
:10029000B107D9F722E0A2E1B2E001C01D92AC3B68
:1002A000B207E1F711E0C5E3D1E000E006C0219715
:1002B0000109802FFE010E94D208C433D10780E0DB
:1002C0000807A9F70E947B040C94DA080C9400003C
:1002D00090E0FC01EE5DFD4F249184529E4FFC01A5
:1002E0008491882399F090E0880F991FFC01EE53C8
:1002F000FE4FA591B491FC01E855FE4F8591949174
:100300008FB7F894EC91E22BEC938FBF0895AF92E6
:10031000BF92CF92DF92EF92FF920F931F93CF93F2
:10032000DF936C017B018B01040F151FEB015E0154
:10033000AE18BF08C017D10759F06991D601ED91E9
:10034000FC910190F081E02DC6011995892B79F778
:10035000C501DF91CF911F910F91FF90EF90DF903A
:10036000CF90BF90AF900895FC01538D448D252F01
:1003700030E0842F90E0821B930B541710F0CF963F
:10038000089501970895FC01918D828D981761F071
:10039000A28DAE0FBF2FB11D5D968C91928D9F5F88
:1003A0009F73928F90E008958FEF9FEF0895FC0167
:1003B000918D828D981731F0828DE80FF11D858D1A
:1003C00090E008958FEF9FEF0895FC01918D228DAD
:1003D000892F90E0805C9F4F821B91098F73992732
:1003E00008958BE192E00E94E50121E0892B09F458
:1003F00020E0822F0895FC01A48DA80FB92FB11D14
:10040000A35ABF4F2C91848D90E001968F7399274A
:10041000848FA689B7892C93A089B1898C91837028
:1004200080648C93938D848D981306C00288F38921
:10043000E02D80818F7D80830895EF92FF920F934E
:100440001F93CF93DF93EC0181E0888F9B8D8C8D80
:1004500098131AC0E889F989808185FF15C09FB774
:10046000F894EE89FF896083E889F9898081837037
:10047000806480839FBF81E090E0DF91CF911F91E6
:100480000F91FF90EF900895F62E0B8D10E00F5F07
:100490001F4F0F731127E02E8C8D8E110CC00FB6DD
:1004A00007FCFACFE889F989808185FFF5CFCE0175
:1004B0000E94FB01F1CFEB8DEC0FFD2FF11DE35AF4
:1004C000FF4FF0829FB7F8940B8FEA89FB898081F8
:1004D0008062CFCFCF93DF93EC01888D8823B9F072
:1004E000AA89BB89E889F9898C9185FD03C080813F
:1004F00086FD0DC00FB607FCF7CF8C9185FFF2CFBC
:10050000808185FFEDCFCE010E94FB01E9CFDF9115
:10051000CF91089580E090E0892B29F00E94F101AD
:1005200081110E94000080E090E0892B49F080E07A
:1005300090E0892B29F00E94000081110E940000A8
:1005400080E090E0892B49F080E090E0892B29F051
:100550000E94000081110E94000080E090E0892B41
:1005600049F080E090E0892B29F00E940000811181
:100570000C94000008958150823108F05AC0E82F91
:10058000F0E08827E953FD4F8F4F0C94D208E70223
:10059000EB02D902DF02E3021903EE02F402F802D1
:1005A000FE02020306030C031003190314031A03CB
:1005B0001E03809180008F77809380000895809142
:1005C00080008F7DF9CF80918000877FF5CF84B543
:1005D0008F7784BD089584B58F7DFBCF8091B00067
:1005E0008F778093B00008958091B0008F7DF9CF10
:1005F000809190008F778093900008958091900073
:100600008F7DF9CF80919000877FF5CF8091A000FA
:100610008F778093A00008958091A0008F7DF9CFFF
:100620008091A000877FF5CF809120018F77809304
:1006300020010895809120018F7DF9CF80912001C4
:10064000877FF5CFCF93DF93282F30E0F901EE5964
:10065000FE4F8491F901EE5DFD4FD491F901E45212
:10066000FE4FC491CC23A1F081110E94BB02EC2F5C
:10067000F0E0EE0FFF1FE85BFE4FA591B491EC9107
:10068000ED2381E090E009F480E0DF91CF910895BF
:1006900080E090E0FACF1F93CF93DF93282F30E0D4
:1006A000F901EE59FE4F8491F901EE5DFD4FD491B1
:1006B000F901E452FE4FC491CC23A9F0162F811109
:1006C0000E94BB02EC2FF0E0EE0FFF1FE855FE4F3B
:1006D000A591B4918FB7F894EC91111108C0D09501
:1006E000DE23DC938FBFDF91CF911F910895DE2B26
:1006F000F8CF3FB7F8948091170290911802A0911B
:100700001902B0911A0226B5A89B05C02F3F19F017
:100710000196A11DB11D3FBFBA2FA92F982F882781
:10072000BC01CD01620F711D811D911D42E0660F5C
:10073000771F881F991F4A95D1F708958F929F922E
:10074000AF92BF92CF92DF92EF92FF926B017C014A
:100750000E9479034B015C01C114D104E104F1044E
:10076000B9F00E947903681979098A099B09683EE2
:1007700073408105910580F321E0C21AD108E10898
:10078000F10888EE880E83E0981EA11CB11CE4CF0E
:10079000FF90EF90DF90CF90BF90AF909F908F90A1
:1007A00008951F920F920FB60F9211240BB60F925D
:1007B0002F933F934F935F936F937F938F939F9369
:1007C000AF93BF93EF93FF938BE192E00E94FB0105
:1007D000FF91EF91BF91AF919F918F917F916F9119
:1007E0005F914F913F912F910F900BBE0F900FBED5
:1007F0000F901F9018951F920F920FB60F92112411
:100800000BB60F922F938F939F93EF93FF93E091EB
:100810002B02F0912C028081E0913102F0913202A2
:1008200082FD1DC09081809134028F5F8F73209173
:100830003502821741F0E0913402F0E0E55EFD4FB1
:10084000958F80933402FF91EF919F918F912F911B
:100850000F900BBE0F900FBE0F901F9018958081C8
:10086000F2CF1F920F920FB60F9211242F933F9346
:100870008F939F93AF93BF93809113029091140233
:10088000A0911502B09116023091120223E0230FBD
:100890002D3758F50196A11DB11D209312028093AA
:1008A000130290931402A0931502B0931602809144
:1008B000170290911802A0911902B0911A020196A4
:1008C000A11DB11D8093170290931802A0931902E5
:1008D000B0931A02BF91AF919F918F913F912F9149
:1008E0000F900FBE0F901F90189526E8230F0296C9
:1008F000A11DB11DD2CF789484B5826084BD84B52A
:10090000816084BD85B5826085BD85B5816085BD0A
:1009100080916E00816080936E00109281008091C2
:10092000810082608093810080918100816080934A
:100930008100809180008160809380008091B1006F
:1009400084608093B1008091B00081608093B0009A
:1009500080919100826080939100809191008160EC
:1009600080939100809190008160809390008091AD
:10097000A10082608093A1008091A100816080939A
:10098000A1008091A00081608093A000809121014E
:1009900082608093210180912101816080932101F7
:1009A0008091200181608093200180917A00846091
:1009B00080937A0080917A00826080937A0080919F
:1009C0007A00816080937A0080917A0080688093B9
:1009D0007A001092C10011B887E087B986E20E94C0
:1009E000680187E20E94680188E20E94680189E24A
:1009F0000E94680182E00E94680160E082E00E943B
:100A00004B038EEF80930A018FE0809307011092D1
:100A1000BB021092BA021092B9021092B802E09191
:100A20002B02F0912C0282E08083E0912702F0916A
:100A300028021082E0912902F0912A028FEC808333
:100A400010923302E0912F02F091300286E0808311
:100A5000E0912D02F0912E02808180618083E091EF
:100A60002D02F0912E02808188608083E0912D021A
:100A7000F0912E02808180688083E0912D02F091B8
:100A80002E0280818F7D8083D2E08091BA02809394
:100A9000080161E08CE20E944B0361E08BE20E945E
:100AA0004B0368EC70E080E090E00E949E0360E001
:100AB0008BE20E944B0360E08CE20E944B0361E0FA
:100AC0008AE20E944B0361E088E20E944B0368ECDB
:100AD00070E080E090E00E949E0360E088E20E9467
:100AE0004B0360E08AE20E944B0386E10E942203EE
:100AF0000197A9F561E089E20E944B0361E08BE276
:100B00000E944B0368EC70E080E090E00E949E033E
:100B100060E08BE20E944B0360E089E20E944B039D
:100B200061E08AE20E944B0361E083E20E944B0392
:100B300068EC70E080E090E00E949E0360E083E259
:100B40000E944B0360E08AE20E944B038091BA024C
:100B50009091BB0201969093BB028093BA0287E109
:100B60000E942203019709F053C061E089E20E94CC
:100B70004B0361E08BE20E944B0368EC70E080E085
:100B800090E00E949E0360E08BE20E944B0360E0D5
:100B900089E20E944B0361E08AE20E944B0361E01C
:100BA00086E20E944B0368EC70E080E090E00E94D7
:100BB0009E0360E086E20E944B0360E08AE20E94AE
:100BC0004B0361E08DE20E944B0361E085E20E94ED
:100BD0004B0361E083E20E944B0368EC70E080E02D
:100BE00090E00E949E0360E083E20E944B0360E07D
:100BF00085E20E944B0360E08DE20E944B038091EE
:100C0000BA029091BB0201969093BB028093BA0204
:100C100088E10E942203019709F053C061E089E254
:100C20000E944B0361E08BE20E944B0368EC70E092
:100C300080E090E00E949E0360E08BE20E944B0304
:100C400060E089E20E944B0361E08AE20E944B036C
:100C500061E086E20E944B0368EC70E080E090E087
:100C60000E949E0360E086E20E944B0360E08AE2FD
:100C70000E944B0361E08EE20E944B0361E085E23B
:100C80000E944B0361E083E20E944B0368EC70E03A
:100C900080E090E00E949E0360E083E20E944B03AC
:100CA00060E085E20E944B0360E08EE20E944B030D
:100CB0008091BA029091BB0201969093BB028093FF
:100CC000BA0289E10E942203019709F053C061E052
:100CD00089E20E944B0361E08BE20E944B0368ECC7
:100CE00070E080E090E00E949E0360E08BE20E9452
:100CF0004B0360E089E20E944B0361E08AE20E94BC
:100D00004B0361E086E20E944B0368EC70E080E0F8
:100D100090E00E949E0360E086E20E944B0360E048
:100D20008AE20E944B0361E08FE20E944B0361E084
:100D300085E20E944B0361E083E20E944B0368EC72
:100D400070E080E090E00E949E0360E083E20E94F9
:100D50004B0360E085E20E944B0360E08FE20E945B
:100D60004B038091BA029091BB0201969093BB0213
:100D70008093BA028AE10E942203019709F061C0C0
:100D800061E089E20E944B0361E08BE20E944B0329
:100D900068EC70E080E090E00E949E0360E08BE2EF
:100DA0000E944B0360E089E20E944B0361E08AE20B
:100DB0000E944B038091060190E044E09595879551
:100DC0004A95E1F761E0892B21F482E00E944B0310
:100DD000FFCF86E20E944B0368EC70E080E090E079
:100DE0000E949E0360E086E20E944B0360E08AE27C
:100DF0000E944B0361E080E30E944B0361E085E2C7
:100E00000E944B0361E083E20E944B0368EC70E0B8
:100E100080E090E00E949E0360E083E20E944B032A
:100E200060E085E20E944B0360E080E30E944B0398
:100E30008091BA029091BB0201969093BB0280937D
:100E4000BA028BE10E942203019719F58091BA0240
:100E50009091BB0201969093B9028093B80261E031
:100E600089E20E944B0368EC70E080E090E00E9411
:100E70009E038091060190E034E0959587953A9520
:100E8000E1F79093BB028093BA0260E089E20E948E
:100E90004B0381E20E942203019709F4FFCF80E215
:100EA0000E9422030197F9F461E084E20E944B035F
:100EB00061E087E20E944B0368EC70E080E090E024
:100EC0000E949E0360E087E20E944B0360E084E2A0
:100ED0000E944B038091BA029091BB0201969093BD
:100EE000BB028093BA028DE10E942203019741F474
:100EF0008091B8029091B9029093BB028093BA029C
:100F00008CE10E9422030197D1F461E089E20E9402
:100F10004B0368EC70E080E090E00E949E038091BB
:100F2000060190E024E0959587952A95E1F7909346
:100F3000BB028093BA0260E089E20E944B0382E226
:100F40000E942203019709F05AC081E080930801B2
:100F500061E08CE20E944B0361E086E20E944B0359
:100F600068EC70E080E090E00E949E0360E086E222
:100F70000E944B0360E08CE20E944B0361E08EE232
:100F80000E944B0361E085E20E944B0361E083E233
:100F90000E944B0368EC70E080E090E00E949E03AA
:100FA00060E083E20E944B0360E085E20E944B0315
:100FB00060E08EE20E944B0361E084E20E944B03FA
:100FC000C091060168EC70E080E090E00E949E0312
:100FD00060E084E20E944B032C2F30E084E03595E2
:100FE00027958A95E1F78091BA029091BB02232B55
:100FF00009F0A5C002969093BB028093BA028EE1DD
:101000000E942203019709F040C081E0809308010B
:1010100061E08CE20E944B0361E086E20E944B0398
:1010200068EC70E080E090E00E949E0360E08CE25B
:101030000E944B0360E086E20E944B0361E08DE278
:101040000E944B0361E085E20E944B0361E083E272
:101050000E944B0368EC70E080E090E00E949E03E9
:1010600060E083E20E944B0360E085E20E944B0354
:1010700060E08DE20E944B038091BA029091BB0226
:1010800001969093BB028093BA028FE10E942203E3
:10109000019709F051C061E084E20E944B03C091C6
:1010A000060168EC70E080E090E00E949E0360E042
:1010B00084E20E944B03C4FD44C0D093080161E068
:1010C0008CE20E944B0361E086E20E944B0368ECD5
:1010D00070E080E090E00E949E0360E08CE20E945D
:1010E0004B0360E086E20E944B0361E08DE20E94C8
:1010F0004B0361E085E20E944B0361E083E20E94C2
:101100004B0368EC70E080E090E00E949E0360E09A
:1011100083E20E944B0360E085E20E944B0360E0A3
:101120008DE20E944B038091BA029091BB0201961E
:101130009093BB028093BA020E948A02A6CC0196C9
:101140005ACF81E080930801BACFEBE1F2E013823D
:10115000128288EE93E0A0E0B0E084839583A683BA
:10116000B78384E092E09183808385EC90E095875B
:10117000848784EC90E09787868780EC90E0918B61
:10118000808B81EC90E0938B828B82EC90E0958B4E
:10119000848B86EC90E0978B868B118E128E138E4B
:1011A000148E0895EE0FFF1F881F8BBF0790F691D6
:0811B000E02D1994F894FFCF23
:1011B800000000001D028701B4016A02E501C301B5
:0211C800D7014D
:00000001FF
